:04000000A3EF10F06A
:10100000004D6F633A202020202020202000437ACA
:1010100061733A20202020202000323030570036E3
:1010200030305700383030570033353057003030CB
:07103000002564003A0000F6
:10103800010EC26E0B0EC16E010EC06EC30E926E13
:101048003F0E936E010E946E000E956E000E966E16
:1010580008EC10F0010E28EC11F0A5C06BF0A6C04A
:101068006CF0A7C06DF0A8C072F0A9C073F0A2C060
:101078006EF0A3C06FF0A4C070F0000E716E740E15
:10108800016E000E026E1A0E036E100E046EC4EC92
:1010980010F0800E28EC11F0010E036E100E046E95
:1010A800F5EC0EF0740E036E000E046EF5EC0EF007
:1010B800C00E28EC11F00E0E036E100E046EF5EC47
:1010C8000EF06E0E036E000E046EF5EC0EF0340E8C
:1010D800036E100E046EF5EC0EF02F0E036E100E5C
:1010E800046EF5EC0EF06E0E586E000E596E310E51
:1010F8005A6E100E5B6E78C001F079C002F0000ED7
:10110800046E3C0E036E33EC0FF001C05CF002C0BD
:101118005DF036EC10F0720E586E000E596E310EFE
:101128005A6E100E5B6E78C001F079C002F0000EA6
:10113800046E3C0E036EA5EC0FF001C05CF002C01B
:101148005DF036EC10F081B2ACEF08F0AEEF08F0CD
:10115800C2EF08F0000E026E640E016E5DEC10F036
:101168007150D8A4BAEF08F0BCEF08F0C0EF08F04F
:10117800010E716EC2EF08F0000E716E81B4C7EFF8
:1011880008F0C9EF08F0FDEF08F0000E796E000EC8
:10119800786E800E28EC11F0010E036E100E046EAE
:1011A800F5EC0EF0740E036E000E046EF5EC0EF006
:1011B800C00E28EC11F00E0E036E100E046EF5EC46
:1011C8000EF02F0E036E100E046EF5EC0EF0340EBA
:1011D800036E100E046EF5EC0EF02E0E036E100E5C
:1011E800046EF5EC0EF00A0E036E100E046EF5ECAC
:1011F8000EF081B602EF09F004EF09F03EEF09F0B6
:10120800000E026E640E016E5DEC10F00A0E782678
:10121800000E7922800E28EC11F0010E036E100EDC
:10122800046EF5EC0EF0740E036E000E046EF5EC11
:101238000EF0C00E28EC11F00E0E036E100E046EA8
:10124800F5EC0EF06E0E036E000E046EF5EC0EF06B
:10125800340E036E100E046EF5EC0EF0720E036E73
:10126800000E046EF5EC0EF00A0E036E100E046EFE
:10127800F5EC0EF081B843EF09F045EF09F07FEF88
:1012880009F0000E026E640E016E5DEC10F03C0E6B
:101298007826000E7922800E28EC11F0010E036EDC
:1012A800100E046EF5EC0EF0740E036E000E046E54
:1012B800F5EC0EF0C00E28EC11F00E0E036E100EB9
:1012C800046EF5EC0EF06E0E036E000E046EF5EC77
:1012D8000EF0340E036E100E046EF5EC0EF0720E66
:1012E800036E000E046EF5EC0EF00A0E036E100E7F
:1012F800046EF5EC0EF081BA84EF09F086EF09F080
:1013080023EF0AF0000E026E640E016E5DEC10F021
:10131800740E016E000E026E1A0E036E100E046E2D
:101328006DEC0FF001500210D8A49DEF09F09FEF6B
:1013380009F0ABEF09F0740E016E000E026E290E73
:10134800036E100E046EC4EC10F0F3EF09F0740E87
:10135800016E000E026E290E036E100E046E6DEC07
:101368000FF001500210D8A4BCEF09F0BEEF09F04D
:10137800CAEF09F0740E016E000E026E1F0E036EA6
:10138800100E046EC4EC10F0F3EF09F0740E016E49
:10139800000E026E1F0E036E100E046E6DEC0FF041
:1013A80001500210D8A4DBEF09F0DDEF09F0E9EFF6
:1013B80009F0740E016E000E026E240E036E100EFC
:1013C800046EC4EC10F0F3EF09F0740E016E000E19
:1013D800026E1A0E036E100E046EC4EC10F0800E2E
:1013E80028EC11F0010E036E100E046EF5EC0EF0F1
:1013F800740E036E000E046EF5EC0EF0C00E28ECB1
:1014080011F00E0E036E100E046EF5EC0EF06E0E5B
:10141800036E000E046EF5EC0EF0340E036E100E23
:10142800046EF5EC0EF0720E036E000E046EF5EC11
:101438000EF00A0E036E100E046EF5EC0EF0710439
:10144800D8A429EF0AF02BEF0AF077EF08F0000E86
:10145800026E640E016E5DEC10F078507910D8B40D
:1014680038EF0AF03AEF0AF03DEF0AF07806D8A014
:101478007906800E28EC11F0010E036E100E046E32
:10148800F5EC0EF0740E036E000E046EF5EC0EF023
:10149800C00E28EC11F00E0E036E100E046EF5EC63
:1014A8000EF06E0E036E000E046EF5EC0EF0340EA8
:1014B800036E100E046EF5EC0EF0720E036E000E45
:1014C800046EF5EC0EF00A0E036E100E046EF5ECC9
:1014D8000EF077EF08F000EF00F01EC036F01FC0E6
:1014E80037F020C038F021C039F022C03AF023C0CC
:1014F8003BF024C03CF025C03DF03DBE86EF0AF02D
:1015080089EF0AF0010E8AEF0AF0000E346E356A90
:1015180034503510D8B493EF0AF095EF0AF0A5EFE0
:101528000AF03D1E3C1E3B1E3A1E391E381E371E51
:10153800366C000E3722382239223A223B223C22CE
:101548003D227DBEAAEF0AF0ACEF0AF0ADEF0AF03B
:101558007E927DBEBAEF0AF07D5006E17C04D8B0D9
:10156800B8EF0AF0BAEF0AF0C0EF0AF0000E316ED9
:10157800010E306EC4EF0AF07CC030F07DC031F04F
:101588007AC032F07BC033F034503510D8A4CFEF96
:101598000AF0D1EF0AF0D8EF0AF07EA4D6EF0AF0ED
:1015A800D8EF0AF0DBEF0AF03206D8A03306000EB7
:1015B8003F6E1F0E3E6E000E0001A16F60EF0BF034
:1015C8003E06D8A03F06820E3E24D96E000E3F206C
:1015D800DA6E36C001F037C002F038C003F039C007
:1015E80004F03AC005F03BC006F03CC007F03DC02F
:1015F80008F00A0E096E000E0A6E000E0B6E000E41
:101608000C6E000E0D6E000E0E6E000E0F6E000EAC
:10161800106E7DEC0DF001C026F002C027F003C06B
:1016280028F004C029F005C02AF006C02BF007C036
:101638002CF008C02DF026C013F028C014F0E4ECFC
:1016480010F01350300FDF6E3006D8A03106320686
:10165800D8A0330636C001F037C002F038C003F016
:1016680039C004F03AC005F03BC006F03CC007F0B2
:101678003DC008F00A0E096E000E0A6E000E0B6ED1
:10168800000E0C6E000E0D6E000E0E6E000E0F6E2C
:10169800000E106EB9EC0CF001C036F002C037F045
:1016A80003C038F004C039F005C03AF006C03BF07A
:1016B80007C03CF008C03DF03FBE6BEF0BF03F5059
:1016C80008E13E04D8A06BEF0BF06DEF0BF09DEF37
:1016D8000BF036503710381039103A103B103C10C8
:1016E8003D10D8A47AEF0BF07CEF0BF0E4EF0AF092
:1016F80031BE89EF0BF0315006E13004D8B087EFE6
:101708000BF089EF0BF0E4EF0AF033BE94EF0BF027
:10171800335008E13204D8A094EF0BF096EF0BF0A9
:101728009DEF0BF07EB29BEF0BF09DEF0BF0E4EF1B
:101738000AF034503510D8A4A4EF0BF0A6EF0BF044
:10174800ADEF0BF07EA4ABEF0BF0ADEF0BF0CBEFF2
:101758000BF03E06D8A03F0634503510D8A4B7EF9A
:101768000BF0B9EF0BF0BFEF0BF0000E2F6E2B0E46
:101778002E6EC3EF0BF0000E2F6E2D0E2E6E820E06
:101788003E24D96E000E3F20DA6E2EC0DFFF1CC04B
:1017980011F01DC012F0820E3E24136E000E3F2081
:1017A800146E32C015F033C016F094EC0EF011C070
:1017B8001CF012C01DF0120042C0D9FF43C0DAFF6E
:1017C800DECFF6FFDDCFF7FF0800F550250AD8A4D5
:1017D800F0EF0BF0F2EF0BF09DEF0CF042C0D9FFE9
:1017E80043C0DAFFDE2A000EDD22000E7B6E000EFB
:1017F8007A6E7AC07EF07BC07FF07C687D6842C0DC
:10180800D9FF43C0DAFFDECFF6FFDDCFF7FF0800D0
:10181800F550640AD8B413EF0CF015EF0CF027EF6D
:101828000CF042C0D9FF43C0DAFFDECFF6FFDDCFB0
:10183800F7FF0800F550690AD8A425EF0CF027EF48
:101848000CF067EF0CF042C0D9FF43C0DAFFDE2A84
:10185800000EDD2244C0D9FF45C0DAFFDFCF46F0D5
:10186800020EDE26DFCF47F0000EDD2246C0D9FF8C
:1018780047C0DAFFDECF48F0DDCF49F0000E49BEA1
:10188800FF0E4A6E4B6E4C6E4D6E4E6E4F6E40C0E4
:101898001CF041C01DF048C01EF049C01FF04AC0EE
:1018A80020F04BC021F04CC022F04DC023F04EC0B8
:1018B80024F04FC025F071EC0AF01CC040F01DC0A8
:1018C80041F0B8EF0CF042C0D9FF43C0DAFFDECFD9
:1018D800F6FFDDCFF7FF0800F550250AD8A477EF0B
:1018E8000CF079EF0CF090EF0CF042C0D9FF43C038
:1018F800DAFFDE2A000EDD22000E026E250E016ED2
:1019080040C003F041C004F02FEC0EF0000E416E11
:10191800010E406EB8EF0CF042C0D9FF43C0DAFFA9
:10192800DE2A000EDD22000E416E000E406EB8EF7A
:101938000CF042C0D9FF43C0DAFFDECFF6FFDDCF9F
:10194800F7FF0800F550016E026A40C003F041C07D
:1019580004F02FEC0EF042C0D9FF43C0DAFFDE2AB4
:10196800000EDD228AEF0CF01200000E126E10BE7F
:10197800C2EF0CF0C0EF0CF0D4EF0CF0101E0F1EED
:101988000E1E0D1E0C1E0B1E0A1E096C000E0A22CE
:101998000B220C220D220E220F221022010E126E93
:1019A80008BEDBEF0CF0D9EF0CF0EDEF0CF0081EE1
:1019B800071E061E051E041E031E021E016C000ED5
:1019C8000222032204220522062207220822010EEF
:1019D800121A20EE13F0070EDE6AE806FDE209503F
:1019E8000A100B100C100D100E100F101010D8B498
:1019F80000EF0DF002EF0DF054EF0DF0010E116E37
:101A080010EF0DF0D89009360A360B360C360D3625
:101A18000E360F361036112A10AE15EF0DF017EFEF
:101A28000DF006EF0DF0D89013361436153616362D
:101A38001736183619361A360950015C0A500258FA
:101A48000B5003580C5004580D5005580E500658AA
:101A58000F50075810500858D8A035EF0DF037EF41
:101A68000DF048EF0DF00950015E0A50025A0B5074
:101A7800035A0C50045A0D50055A0E50065A0F506E
:101A8800075A1050085A1380D89010320F320E326D
:101A98000D320C320B320A320932112E17EF0DF0CB
:101AA8001250D8B45AEF0DF05CEF0DF06CEF0DF05A
:101AB8001A1E191E181E171E161E151E141E136C2C
:101AC800000E1422152216221722182219221A2271
:101AD80013C001F014C002F015C003F016C004F0E2
:101AE80017C005F018C006F019C007F01AC008F0B2
:101AF8001200000E126E08BE86EF0DF084EF0DF096
:101B080098EF0DF0081E071E061E051E041E031E74
:101B1800021E016C000E0222032204220522062264
:101B280007220822010E126E10BE9FEF0DF09DEFE6
:101B38000DF0AFEF0DF0101E0F1E0E1E0D1E0C1E29
:101B48000B1E0A1E096C000E0A220B220C220D2203
:101B58000E220F22102209500A100B100C100D1023
:101B68000E100F101010D8B4BCEF0DF0BEEF0DF032
:101B780006EF0EF0010E116ECCEF0DF0D89009367D
:101B88000A360B360C360D360E360F361036112A3D
:101B980010AED1EF0DF0D3EF0DF0C2EF0DF00950FC
:101BA800015C0A5002580B5003580C5004580D5051
:101BB80005580E5006580F50075810500858D8A00E
:101BC800E8EF0DF0EAEF0DF0FAEF0DF00950015EC5
:101BD8000A50025A0B50035A0C50045A0D50055A19
:101BE8000E50065A0F50075A1050085AD890103203
:101BF8000F320E320D320C320B320A320932112EEC
:101C0800D3EF0DF01250D8B40CEF0EF00EEF0EF02B
:101C18001EEF0EF0081E071E061E051E041E031EDC
:101C2800021E016C000E0222032204220522062253
:101C38000722082201C001F002C002F003C003F02D
:101C480004C004F005C005F006C006F007C007F0A0
:101C580008C008F0120003500410D8B436EF0EF094
:101C680038EF0EF041EF0EF003500410D8A43FEF08
:101C78000EF041EF0EF046EF0EF0015039EC11F086
:101C880093EF0EF020EE09F00350D9260450DA2223
:101C9800DE50DE10D8B453EF0EF055EF0EF070EFB3
:101CA8000EF020EE09F00350D9260450DA2210EE87
:101CB80003F00350E1260450E222DE50E65CE650D1
:101CC800800A096EDE50800A0958D8B06EEF0EF00F
:101CD80070EF0EF093EF0EF020EE03F00350D926CC
:101CE8000450DA22DECF05F0DDCF06F003C0D9FFBD
:101CF80004C0DAFFDECF07F0DDCF08F00550072477
:101D0800D96E06500820DA6E01C0DFFF20EE03F01E
:101D18000350D9260450DA22DE2A000EDD221200F2
:101D28007EA099EF0EF09BEF0EF0A5EF0EF013C01A
:101D38000AF014C00BF011C00CF012C00DF081ECC9
:101D480010F016BEAAEF0EF0ACEF0EF0B2EF0EF0E8
:101D580015C01AF016C01BF0B6EF0EF0000E1B6E81
:101D6800000E1A6E000E196E000E186EC8EF0EF0F7
:101D7800000E026E200E016E11C003F012C004F0B6
:101D88002FEC0EF0184A192A1A50185C1950800ABC
:101D9800176E1B50800A1758D8A0D5EF0EF0D7EF52
:101DA8000EF0BCEF0EF07EB0DCEF0EF0DEEF0EF0C2
:101DB800E8EF0EF013C00AF014C00BF011C00CF0DD
:101DC80012C00DF081EC10F013C001F014C002F045
:101DD80004EC11F01A500124116E1B500220126EEF
:101DE8001200000E076E13EF0FF007500324056E64
:101DF800000E0420066E05C0F6FF06C0F7FF000EB1
:101E0800F86E0F0EF76403D00800F55005D0F6CF32
:101E1800E1FFF7CFE2FFE7501FEC11F0072A075068
:101E28000324056E000E0420066E05C0F6FF06C0EA
:101E3800F7FF000EF86E0F0EF76403D00800F55098
:101E480005D0F6CFE1FFF7CFE2FFE7500009D8A4AD
:101E580030EF0FF032EF0FF0F9EF0EF01200000E36
:101E6800066E000E056E03500410D8B43EEF0FF056
:101E780040EF0FF068EF0FF0010E076E48EF0FF01C
:101E8800D89003360436072A04AE4DEF0FF04FEF13
:101E98000FF044EF0FF0D890053606360350015C7A
:101EA80004500258D8A05BEF0FF05DEF0FF062EF1F
:101EB8000FF00350015E0450025A0580D890043296
:101EC8000332072E4FEF0FF005C001F006C002F0F5
:101ED800120073EF0FF0014A022A034A042A01C0D4
:101EE800D9FF02C0DAFFDF50056E03C0F6FF04C059
:101EF800F7FF0800F5500518D8A485EF0FF087EF15
:101F08000FF093EF0FF001C0D9FF02C0DAFFDF50E6
:101F1800D8A491EF0FF093EF0FF06FEF0FF001C01F
:101F2800D9FF02C0DAFFDF50056E03C0F6FF04C018
:101F3800F7FF0800F550055C016E026AD8A002069A
:101F4800120003500410D8B4ACEF0FF0AEEF0FF04E
:101F5800D2EF0FF0010E056EB6EF0FF0D8900336F2
:101F68000436052A04AEBBEF0FF0BDEF0FF0B2EF59
:101F78000FF00350015C04500258D8A0C6EF0FF0D0
:101F8800C8EF0FF0CCEF0FF00350015E0450025A77
:101F9800D89004320332052EBDEF0FF001C001F0D6
:101FA80002C002F0120052C056F053C057F0000EA3
:101FB8000001816F000E806FF5EF0FF050C040F008
:101FC80051C041F0560E426E000E436E54C044F0AC
:101FD80055C045F0E0EC0BF040500001802741501F
:101FE800812356C0F6FF57C0F7FF0800F5500009D7
:101FF800D8A401EF10F003EF10F0E2EF0FF080C06B
:1020080050F081C051F0120084928494000E026E48
:10201800140E016E5DEC10F08482380E28EC11F07D
:10202800000E026E050E016E5DEC10F0380E28EC05
:1020380011F0000E026E010E016E5DEC10F0380E0C
:1020480028EC11F0080E28EC11F00F0E28EC11F016
:10205800010E28EC11F0380E28EC11F0800E28EC57
:1020680011F012005C0E5E6E000E5F6E58C060F0DC
:1020780059C061F0000E646E000E636E000E6A6E49
:10208800000E696E600E506E000E516E5AC052F00E
:102098005BC053F05E0E546E000E556ED7EC0FF019
:1020A80063505824D96E64505920DA6E000EDF6EE2
:1020B8001200000E046E000E036E75EF10F0000E95
:1020C800056E00F000F000F000F000F0052AC70EE1
:1020D800056471EF10F073EF10F065EF10F0034A2C
:1020E800042A0150035C02500458D8A07EEF10F077
:1020F80080EF10F063EF10F01200000E106E000E6B
:102108000F6E92EF10F00EC001F0026A0CC003F0DF
:102118000DC004F02FEC0EF00F4A102A0F500A24BD
:10212800D96E10500B20DA6EDF500E6E0E50D8A408
:10213800A0EF10F0A2EF10F087EF10F01200620E7F
:10214800F66E220EF76E000EF86E00EEA2F010EE9C
:1021580008F00900F5CFEEFFE550E150FAE100EE96
:1021680080F0220EEE6AE806FDE17F6A7E6A7D6AEB
:102178007C6A7B6A7A6A000EF86E00011CEF08F030
:1021880003C005F004C006F001C007F002C008F063
:1021980005C0F6FF06C0F7FF054A062A07C0D9FFA3
:1021A80008C0DAFF074A082A0800F5CFDFFFDF502A
:1021B800D8A4E1EF10F0E3EF10F0CCEF10F012002C
:1021C80014BEF1EF10F0145006E11304D8B0EFEF8D
:1021D80010F0F1EF10F0FFEF10F013C015F014C07D
:1021E80016F0151E161E154A162A15C013F016C02D
:1021F80014F003EF11F013C013F014C014F0120020
:1022080001C003F002C004F00CEF11F0014A022AE9
:1022180001C0D9FF02C0DAFFDF50D8A416EF11F0D1
:1022280018EF11F00AEF11F00350015C016E045031
:102238000258026E1200026E8482025035EC11F0D0
:102248008484849284821200026E8482025035EC67
:1022580011F08494849284821200300000300000CF
:0C2268003000016E01C083FF1200120064
:020000040020DA
:08000000FFFFFFFFFFFFFFFF00
:020000040030CA
:0E000000FF06181EFF8180FF0FC00FE00F40AB
:00000001FF
