:04000000C7EF11F045
:1010000000477261637A312070727A656772616C31
:1010100000477261637A322070727A656772616C20
:10102000006B6F6E69656320637A61737500477248
:1010300061637A20312020202000477261637A208A
:101040003220202020002564003A0000010EC26EEC
:101050000B0EC16E010EC06EC30E926E3F0E936EEC
:10106000010E946E000E956E000E966EF1EC10F06F
:10107000010EE1EC11F0000E0101CD6F000ECC6FFE
:10108000000ED96F000ED86F000ED56F000ED46F12
:10109000000EDB6F000EDA6F000ED76F000ED66FFA
:1010A000000E026EC80E016E46EC11F081B65BEFC9
:1010B00008F05DEF08F07AEF09F0000E0101CD6F46
:1010C000010ECC6F000EC96F000EC86F73EF09F0F0
:1010D000D4C1CEF1D5C1CFF1CFBF73EF08F071EF1E
:1010E00008F075EF08F02BEF09F0010E026EF40E18
:1010F000016E46EC11F081BA80EF08F082EF08F043
:1011000089EF08F0000E0101C96F010EC86F2BEFC7
:1011100009F00101CE51CF11D8A491EF08F093EF5F
:1011200008F0A8EF08F0D851D911D8B49AEF08F018
:101130009CEF08F0AEEF08F0FF0ED825D86FFF0E39
:10114000D921D96F000ED56F3B0ED46FAEEF08F0EA
:10115000FF0ED425D46FFF0ED521D56F010E026E80
:10116000F40E016E46EC11F0010EE1EC11F0000EF0
:10117000586E010E596E460E5A6E100E5B6ED8C137
:101180005CF0D9C15DF01FEC11F0320E586E010E0B
:10119000596E460E5A6E100E5B6ED4C15CF0D5C10E
:1011A0005DF01FEC11F0800EE1EC11F02E0E036EDD
:1011B000100E046E4AEC10F0000E036E010E046E69
:1011C0004AEC10F0490E036E100E046E4AEC10F05B
:1011D000320E036E010E046E4AEC10F0640E586E6F
:1011E000010E596E460E5A6E100E5B6EDAC15CF03F
:1011F000DBC15DF01FEC11F0960E586E010E596EBA
:10120000460E5A6E100E5B6ED6C15CF0D7C15DF013
:101210001FEC11F0C00EE1EC11F03A0E036E100E4F
:10122000046E4AEC10F0640E036E010E046E4AEC7C
:1012300010F0490E036E100E046E4AEC10F0960E7C
:10124000036E010E046E4AEC10F00101CE07D8A027
:10125000CF076CEF08F0C805C911D8A432EF09F028
:1012600034EF09F036EF09F07AEF09F0D851D911CF
:10127000D8A43DEF09F03FEF09F073EF09F0D45126
:10128000D511D8A446EF09F048EF09F073EF09F043
:10129000010EE1EC11F0800EE1EC11F0010E036E95
:1012A000100E046E4AEC10F0C00EE1EC11F0210EAD
:1012B000036E100E046E4AEC10F0000E0101DB6F9D
:1012C000000EDA6F000ED76F000ED66F130E026E8F
:1012D000880E016E46EC11F0000E0101CD6F000E7C
:1012E000CC6F7AEF09F0D9BF7AEF09F078EF09F007
:1012F00068EF08F081BA7FEF09F081EF09F09EEF07
:101300000AF0000E0101CD6F010ECC6F000ECB6F05
:10131000000ECA6F97EF0AF0D6C1D0F1D7C1D1F154
:10132000D1BF97EF09F095EF09F099EF09F04FEF72
:101330000AF0010E026EF40E016E46EC11F081B659
:10134000A4EF09F0A6EF09F0ADEF09F0000E0101DE
:10135000CB6F010ECA6F4FEF0AF00101D051D111CE
:10136000D8A4B5EF09F0B7EF09F0CCEF09F0DA51E6
:10137000DB11D8B4BEEF09F0C0EF09F0D2EF09F0ED
:10138000FF0EDA25DA6FFF0EDB21DB6F000ED76F61
:101390003B0ED66FD2EF09F0FF0ED625D66FFF0EAB
:1013A000D721D76F010E026EF40E016E46EC11F0DC
:1013B000010EE1EC11F0000E586E010E596E460E52
:1013C0005A6E100E5B6ED8C15CF0D9C15DF01FEC97
:1013D00011F0320E586E010E596E460E5A6E100EF6
:1013E0005B6ED4C15CF0D5C15DF01FEC11F0800ED6
:1013F000E1EC11F02E0E036E100E046E4AEC10F0AC
:10140000000E036E010E046E4AEC10F0490E036EDE
:10141000100E046E4AEC10F0320E036E010E046ED4
:101420004AEC10F0640E586E010E596E460E5A6E5C
:10143000100E5B6EDAC15CF0DBC15DF01FEC11F0E9
:10144000960E586E010E596E460E5A6E100E5B6E59
:10145000D6C15CF0D7C15DF01FEC11F0C00EE1EC1D
:1014600011F03A0E036E100E046E4AEC10F0640E8A
:10147000036E010E046E4AEC10F0490E036E100E5E
:10148000046E4AEC10F0960E036E010E046E4AECE8
:1014900010F00101D007D8A0D10790EF09F0CA05DC
:1014A000CB11D8A456EF0AF058EF0AF05AEF0AF021
:1014B0009EEF0AF0DA51DB11D8A461EF0AF063EF76
:1014C0000AF097EF0AF0D651D711D8A46AEF0AF0C4
:1014D0006CEF0AF097EF0AF0010EE1EC11F0800ECC
:1014E000E1EC11F0110E036E100E046E4AEC10F0D8
:1014F000C00EE1EC11F0210E036E100E046E4AECEA
:1015000010F0000E0101D96F000ED86F000ED56FDC
:10151000000ED46F130E026E880E016E46EC11F0B1
:10152000000E0101CD6F000ECC6F9EEF0AF0DBBF05
:101530009EEF0AF09CEF0AF08CEF09F00101CC510C
:10154000CD11D8A4A6EF0AF0A8EF0AF009EF0BF02E
:10155000010E02EC10F001C008F002C009F0000E0C
:101560000B6E0A0E0A6E88EC10F008C0D2F109C0AA
:10157000D3F10101D35107E1220ED25DD8B0C3EF00
:101580000AF0C5EF0AF0CDEF0AF0000ED96F010E98
:10159000D86F000EDB6F010EDA6FD35109E1220E16
:1015A000D25DD8A0D6EF0AF0D8EF0AF0EBEF0AF040
:1015B000D35107E1430ED25DD8B0E1EF0AF0E3EF7B
:1015C0000AF0EBEF0AF0000ED96F030ED86F000E91
:1015D000DB6F030EDA6FD35109E1430ED25DD8A061
:1015E000F4EF0AF0F6EF0AF009EF0BF0D35107E140
:1015F000640ED25DD8B0FFEF0AF001EF0BF009EFF7
:101600000BF0000ED96F050ED86F000EDB6F050EC4
:10161000DA6F010EE1EC11F0000E586E010E596EFA
:10162000460E5A6E100E5B6ED8C15CF0D9C15DF0EB
:101630001FEC11F0320E586E010E596E460E5A6EA6
:10164000100E5B6ED4C15CF0D5C15DF01FEC11F0E3
:10165000800EE1EC11F02E0E036E100E046E4AECBB
:1016600010F0000E036E010E046E4AEC10F0490EED
:10167000036E100E046E4AEC10F0320E036E010E73
:10168000046E4AEC10F0640E586E010E596E460E50
:101690005A6E100E5B6EDAC15CF0DBC15DF01FECC0
:1016A00011F0960E586E010E596E460E5A6E100EBF
:1016B0005B6ED6C15CF0D7C15DF01FEC11F0C00EBF
:1016C000E1EC11F03A0E036E100E046E4AEC10F0CD
:1016D000640E036E010E046E4AEC10F0490E036EA8
:1016E000100E046E4AEC10F0960E036E010E046E9E
:1016F0004AEC10F050EF08F000EF00F01EC036F09A
:101700001FC037F020C038F021C039F022C03AF0B5
:1017100023C03BF024C03CF025C03DF03DBE93EF1C
:101720000BF096EF0BF0010E97EF0BF0000E346EFE
:10173000356A34503510D8B4A0EF0BF0A2EF0BF09F
:10174000B2EF0BF03D1E3C1E3B1E3A1E391E381EEA
:10175000371E366C000E3722382239223A223B22BD
:101760003C223D2270BEB7EF0BF0B9EF0BF0BAEFA1
:101770000BF0719270BEC7EF0BF0705006E16F0472
:10178000D8B0C5EF0BF0C7EF0BF0CDEF0BF0000EAC
:10179000316E010E306ED1EF0BF06FC030F070C0C3
:1017A00031F06DC032F06EC033F034503510D8A433
:1017B000DCEF0BF0DEEF0BF0E5EF0BF071A4E3EFE5
:1017C0000BF0E5EF0BF0E8EF0BF03206D8A0330694
:1017D000000E3F6E1F0E3E6E000E00019F6F6DEFFC
:1017E0000CF03E06D8A03F06800E3E24D96E000EB7
:1017F0003F20DA6E36C001F037C002F038C003F087
:1018000039C004F03AC005F03BC006F03CC007F018
:101810003DC008F00A0E096E000E0A6E000E0B6E37
:10182000000E0C6E000E0D6E000E0E6E000E0F6E92
:10183000000E106E8AEC0EF001C026F002C027F0F8
:1018400003C028F004C029F005C02AF006C02BF020
:1018500007C02CF008C02DF026C013F028C014F0EB
:101860008CEC11F01350300FDF6E3006D8A031062B
:101870003206D8A0330636C001F037C002F038C0B7
:1018800003F039C004F03AC005F03BC006F03CC09C
:1018900007F03DC008F00A0E096E000E0A6E000E39
:1018A0000B6E000E0C6E000E0D6E000E0E6E000E16
:1018B0000F6E000E106EC6EC0DF001C036F002C0C7
:1018C00037F003C038F004C039F005C03AF006C064
:1018D0003BF007C03CF008C03DF03FBE78EF0CF095
:1018E0003F5008E13E04D8A078EF0CF07AEF0CF0FE
:1018F000AAEF0CF036503710381039103A103B1060
:101900003C103D10D8A487EF0CF089EF0CF0F1EFFC
:101910000BF031BE96EF0CF0315006E13004D8B038
:1019200094EF0CF096EF0CF0F1EF0BF033BEA1EF5B
:101930000CF0335008E13204D8A0A1EF0CF0A3EF73
:101940000CF0AAEF0CF071B2A8EF0CF0AAEF0CF0BB
:10195000F1EF0BF034503510D8A4B1EF0CF0B3EF29
:101960000CF0BAEF0CF071A4B8EF0CF0BAEF0CF079
:10197000D8EF0CF03E06D8A03F0634503510D8A45E
:10198000C4EF0CF0C6EF0CF0CCEF0CF0000E2F6E95
:101990002B0E2E6ED0EF0CF0000E2F6E2D0E2E6E35
:1019A000800E3E24D96E000E3F20DA6E2EC0DFFF7F
:1019B0001CC011F01DC012F0800E3E24136E000EEC
:1019C0003F20146E32C015F033C016F0A1EC0FF0BA
:1019D00011C01CF012C01DF0120042C0D9FF43C05C
:1019E000DAFFDECFF6FFDDCFF7FF0800F550250A5E
:1019F000D8A4FDEF0CF0FFEF0CF0AAEF0DF042C001
:101A0000D9FF43C0DAFFDE2A000EDD22000E6E6E23
:101A1000000E6D6E6DC071F06EC072F06F68706810
:101A200042C0D9FF43C0DAFFDECFF6FFDDCFF7FFBC
:101A30000800F550640AD8B420EF0DF022EF0DF045
:101A400034EF0DF042C0D9FF43C0DAFFDECFF6FF1E
:101A5000DDCFF7FF0800F550690AD8A432EF0DF08A
:101A600034EF0DF074EF0DF042C0D9FF43C0DAFF40
:101A7000DE2A000EDD2244C0D9FF45C0DAFFDFCFE9
:101A800046F0020EDE26DFCF47F0000EDD2246C014
:101A9000D9FF47C0DAFFDECF48F0DDCF49F0000EB6
:101AA00049BEFF0E4A6E4B6E4C6E4D6E4E6E4F6EC3
:101AB00040C01CF041C01DF048C01EF049C01FF0DE
:101AC0004AC020F04BC021F04CC022F04DC023F0A2
:101AD0004EC024F04FC025F07EEC0BF01CC040F04F
:101AE0001DC041F0C5EF0DF042C0D9FF43C0DAFF81
:101AF000DECFF6FFDDCFF7FF0800F550250AD8A4AA
:101B000084EF0DF086EF0DF09DEF0DF042C0D9FF90
:101B100043C0DAFFDE2A000EDD22000E026E250E23
:101B2000016E40C003F041C004F03CEC0FF0000E29
:101B3000416E010E406EC5EF0DF042C0D9FF43C0AB
:101B4000DAFFDE2A000EDD22000E416E000E406E2E
:101B5000C5EF0DF042C0D9FF43C0DAFFDECFF6FF7C
:101B6000DDCFF7FF0800F550016E026A40C003F0B8
:101B700041C004F03CEC0FF042C0D9FF43C0DAFF93
:101B8000DE2A000EDD2297EF0DF01200000E126E1D
:101B900010BECFEF0DF0CDEF0DF0E1EF0DF0101E08
:101BA0000F1E0E1E0D1E0C1E0B1E0A1E096C000EB3
:101BB0000A220B220C220D220E220F221022010ECD
:101BC000126E08BEE8EF0DF0E6EF0DF0FAEF0DF043
:101BD000081E071E061E051E041E031E021E016CA3
:101BE000000E0222032204220522062207220822D6
:101BF000010E121A20EE13F0070EDE6AE806FDE26F
:101C000009500A100B100C100D100E100F101010B0
:101C1000D8B40DEF0EF00FEF0EF061EF0EF0010EE5
:101C2000116E1DEF0EF0D89009360A360B360C36C1
:101C30000D360E360F361036112A10AE22EF0EF08A
:101C400024EF0EF013EF0EF0D8901336143615363D
:101C500016361736183619361A360950015C0A50EE
:101C600002580B5003580C5004580D5005580E5094
:101C700006580F50075810500858D8A042EF0EF0E1
:101C800044EF0EF055EF0EF00950015E0A50025A73
:101C90000B50035A0C50045A0D50055A0E50065A58
:101CA0000F50075A1050085A1380D89010320F3234
:101CB0000E320D320C320B320A320932112E24EF61
:101CC0000EF01250D8B467EF0EF069EF0EF079EF16
:101CD0000EF01A1E191E181E171E161E151E141E93
:101CE000136C000E14221522162217221822192214
:101CF0001A2213C001F014C002F015C003F016C080
:101D000004F017C005F018C006F019C007F01AC09B
:101D100008F01200000E126E08BE93EF0EF091EF65
:101D20000EF0A5EF0EF0081E071E061E051E041E6F
:101D3000031E021E016C000E022203220422052251
:101D4000062207220822010E126E10BEACEF0EF022
:101D5000AAEF0EF0BCEF0EF0101E0F1E0E1E0D1E91
:101D60000C1E0B1E0A1E096C000E0A220B220C22EE
:101D70000D220E220F22102209500A100B100C10F7
:101D80000D100E100F101010D8B4C9EF0EF0CBEFDD
:101D90000EF013EF0FF0010E116ED9EF0EF0D89088
:101DA00009360A360B360C360D360E360F3610361F
:101DB000112A10AEDEEF0EF0E0EF0EF0CFEF0EF0D6
:101DC0000950015C0A5002580B5003580C5004583B
:101DD0000D5005580E5006580F500758105008580F
:101DE000D8A0F5EF0EF0F7EF0EF007EF0FF0095067
:101DF000015E0A50025A0B50035A0C50045A0D50FF
:101E0000055A0E50065A0F50075A1050085AD890CB
:101E100010320F320E320D320C320B320A320932CE
:101E2000112EE0EF0EF01250D8B419EF0FF01BEFA7
:101E30000FF02BEF0FF0081E071E061E051E041ED6
:101E4000031E021E016C000E022203220422052240
:101E500006220722082201C001F002C002F003C0DE
:101E600003F004C004F005C005F006C006F007C08A
:101E700007F008C008F0120003500410D8B443EF74
:101E80000FF045EF0FF04EEF0FF003500410D8A401
:101E90004CEF0FF04EEF0FF053EF0FF00150EEEC60
:101EA00011F0A0EF0FF020EE09F00350D9260450F6
:101EB000DA22DE50DE10D8B460EF0FF062EF0FF0E0
:101EC0007DEF0FF020EE09F00350D9260450DA22FE
:101ED00010EE03F00350E1260450E222DE50E65CEF
:101EE000E650800A096EDE50800A0958D8B07BEFB0
:101EF0000FF07DEF0FF0A0EF0FF020EE03F0035096
:101F0000D9260450DA22DECF05F0DDCF06F003C07B
:101F1000D9FF04C0DAFFDECF07F0DDCF08F00550AF
:101F20000724D96E06500820DA6E01C0DFFF20EECC
:101F300003F00350D9260450DA22DE2A000EDD22F7
:101F4000120071A0A6EF0FF0A8EF0FF0B2EF0FF0A4
:101F500013C00AF014C00BF011C00CF012C00DF049
:101F60006AEC11F016BEB7EF0FF0B9EF0FF0BFEF4C
:101F70000FF015C01AF016C01BF0C3EF0FF0000EE3
:101F80001B6E000E1A6E000E196E000E186ED5EF45
:101F90000FF0000E026E200E016E11C003F012C091
:101FA00004F03CEC0FF0184A192A1A50185C19502A
:101FB000800A176E1B50800A1758D8A0E2EF0FF066
:101FC000E4EF0FF0C9EF0FF071B0E9EF0FF0EBEFB6
:101FD0000FF0F5EF0FF013C00AF014C00BF011C0B2
:101FE0000CF012C00DF06AEC11F013C001F014C037
:101FF00002F0ACEC11F01A500124116E1B500220BB
:10200000126E1200076E11EF10F0010EC26E2AEF71
:1020100010F0050EC26E2AEF10F0090EC26E2AEF04
:1020200010F00750036E046A0450000AD8B41BEF86
:1020300010F02AEF10F00350000AD8B405EF10F0AA
:10204000010AD8B409EF10F0030AD8B40DEF10F06C
:102050002AEF10F0C282C2B230EF10F032EF10F06F
:102060002BEF10F0C3CF03F0060E046ED8900332AE
:10207000042E36EF10F00350C4CF05F0066AD89056
:1020800005360636D890053606360510016E065020
:10209000026E1200000E076E68EF10F00750032466
:1020A000056E000E0420066E05C0F6FF06C0F7FFA1
:1020B000000EF86E0F0EF76403D00800F55005D03F
:1020C000F6CFE1FFF7CFE2FFE750D8EC11F0072A97
:1020D00007500324056E000E0420066E05C0F6FFAF
:1020E00006C0F7FF000EF86E0F0EF76403D008006D
:1020F000F55005D0F6CFE1FFF7CFE2FFE75000093A
:10210000D8A485EF10F087EF10F04EEF10F012001A
:10211000000E0D6E000E0C6E0A500B10D8B493EF2B
:1021200010F095EF10F0BDEF10F0010E0E6E9DEF68
:1021300010F0D8900A360B360E2A0BAEA2EF10F034
:10214000A4EF10F099EF10F0D8900C360D360A502D
:10215000085C0B500958D8A0B0EF10F0B2EF10F0A7
:10216000B7EF10F00A50085E0B50095A0C80D89057
:102170000B320A320E2EA4EF10F00CC008F00DC086
:1021800009F0120052C056F053C057F0000E6C6EAA
:10219000000E6B6EDEEF10F050C040F051C041F009
:1021A000560E426E000E436E54C044F055C045F0CA
:1021B000EDEC0CF040506B2641506C2256C0F6FFFF
:1021C00057C0F7FF0800F5500009D8A4EAEF10F057
:1021D000ECEF10F0CCEF10F06BC050F06CC051F091
:1021E000120084928494000E026E140E016E46EC6E
:1021F00011F08482380EE1EC11F0000E026E050E33
:10220000016E46EC11F0380EE1EC11F0000E026E9A
:10221000010E016E46EC11F0380EE1EC11F0080EE3
:10222000E1EC11F00F0EE1EC11F0010EE1EC11F018
:10223000380EE1EC11F0800EE1EC11F012005C0EB2
:102240005E6E000E5F6E58C060F059C061F0000E07
:10225000646E000E636E000E6A6E000E696E600E94
:10226000506E000E516E5AC052F05BC053F05E0EBD
:10227000546E000E556EC2EC10F063505824D96EA7
:1022800064505920DA6E000EDF6E1200000E046EEC
:10229000000E036E5EEF11F0000E056E00F000F010
:1022A00000F000F000F0052AC70E05645AEF11F0A7
:1022B0005CEF11F04EEF11F0034A042A0150035C69
:1022C00002500458D8A067EF11F069EF11F04CEFFD
:1022D00011F01200000E106E000E0F6E7BEF11F069
:1022E0000EC001F0026A0CC003F00DC004F03CEC1B
:1022F0000FF00F4A102A0F500A24D96E10500B20ED
:10230000DA6EDF500E6E0E50D8A489EF11F08BEF0D
:1023100011F070EF11F0120014BE99EF11F014508B
:1023200006E11304D8B097EF11F099EF11F0A7EF81
:1023300011F013C015F014C016F0151E161E154A24
:10234000162A15C013F016C014F0ABEF11F013C02D
:1023500013F014C014F0120001C003F002C004F026
:10236000B4EF11F0014A022A01C0D9FF02C0DAFF1E
:10237000DF50D8A4BEEF11F0C0EF11F0B2EF11F0B2
:102380000350015C016E04500258026E120000EE10
:1023900080F0200EEE6AE806FDE100EE6BF0080E1C
:1023A000EE6AE806FDE1000EF86E000126EF08F087
:1023B000026E84820250EAEC11F08484849284825A
:1023C0001200026E84820250EAEC11F0849484922E
:0E23D00084821200016E01C083FF1200120011
:020000040020DA
:08000000FFFFFFFFFFFFFFFF00
:020000040030CA
:0E000000FF06181EFF8180FF0FC00FE00F40AB
:00000001FF
