:040000001FEF09F0F5
:101000000057206D65646961206578706572742190
:10101000210054594C4B4F2055204E4153004E69EE
:10102000736B69652063656E7900436F647A6965E7
:0F1030006E6E69650052656B6C616D6121000029
:10104000010EC26E0B0EC16E010EC06EC30E926E0B
:101050003F0E936E010E946E000E956E000E966E0E
:1010600093EC08F0010E16EC09F0030E026EE80E88
:10107000016EE9EC08F0010E16EC09F0800E16EC9A
:1010800009F0350E036E100E046EC1EC08F0030E6D
:10109000026EE80E016EE9EC08F0010E16EC09F0A4
:1010A000800E16EC09F0120E036E100E046EC1ECE9
:1010B00008F0030E026EE80E016EE9EC08F0010E76
:1010C00016EC09F0800E16EC09F02A0E036E100ED5
:1010D000046EC1EC08F0030E026EE80E016EE9EC3E
:1010E00008F0010E16EC09F0800E16EC09F01E0E49
:1010F000036E100E046EC1EC08F0030E026EE80ED3
:10110000016EE9EC08F0010E16EC09F0800E16EC09
:1011100009F0010E036E100E046EC1EC08F035EFFD
:1011200008F000EF00F084928494000E026E140E1A
:10113000016EE9EC08F08482380E16EC09F0000E1E
:10114000026E050E016EE9EC08F0380E16EC09F09F
:10115000000E026E010E016EE9EC08F0380E16EC7E
:1011600009F0080E16EC09F00F0E16EC09F0010E4E
:1011700016EC09F0380E16EC09F0800E16EC09F0AA
:101180001200000E076ED4EF08F007500324056E1E
:10119000000E0420066E05C0F6FF06C0F7FF08002B
:1011A000F5500DEC09F0072A07500324056E000ED8
:1011B0000420066E05C0F6FF06C0F7FF0800F550D4
:1011C0000009D8A4E6EF08F0E8EF08F0C5EF08F052
:1011D0001200000E046E000E036E01EF09F0000E07
:1011E000056E00F000F000F000F000F0052AC70ED8
:1011F0000564FDEF08F0FFEF08F0F1EF08F0034A97
:10120000042A0150035C02500458D8A00AEF09F0E8
:101210000CEF09F0EFEF08F01200026E848202502A
:1012200024EC09F08484849284821200026E848209
:10123000025024EC09F08494849284821200000EFF
:10124000F86E000120EF08F0016E01C083FF12006C
:020000040020DA
:08000000FFFFFFFFFFFFFFFF00
:020000040030CA
:0E000000FF06181EFF8180FF0FC00FE00F40AB
:00000001FF
