:0400000080EF09F094
:10100000005F5F5F5F285F6F6F5F295F28295F5F09
:101010002F0020202020205F205F20202020205F24
:101020005F5F00202020202020205720202020202B
:101030002020004D6564696120202020457870657E
:1010400072740020202020202055204E4153002083
:1010500020202020202043454E5900202020202001
:10106000206E6E69650052656B6C616D6121004E8A
:1010700069736B696500436F647A69650054594C04
:101080004B4F0000010EC26E0B0EC16E010EC06E02
:10109000C30E926E3F0E936E010E946E000E956E0F
:1010A000000E966EF4EC08F0010E77EC09F0030EDA
:1010B000026EE80E016E4AEC09F0010E77EC09F0C1
:1010C000800E77EC09F0660E036E100E046E22ECB3
:1010D00009F0030E026EE80E016E4AEC09F0010EF3
:1010E00077EC09F0800E77EC09F07D0E036E100EA0
:1010F000046E22EC09F0C00E77EC09F0430E036E8B
:10110000100E046E22EC09F0030E026EE80E016E62
:101110004AEC09F0010E77EC09F0800E77EC09F04B
:10112000760E036E100E046E22EC09F0C00E77EC02
:1011300009F05B0E036E100E046E22EC09F0030E34
:10114000026EE80E016E4AEC09F0010E77EC09F030
:10115000800E77EC09F06F0E036E100E046E22EC19
:1011600009F0C00E77EC09F04F0E036E100E046EFE
:1011700022EC09F0030E026EE80E016E4AEC09F053
:10118000010E77EC09F0800E77EC09F0230E036E68
:10119000100E046E22EC09F0C00E77EC09F0330E4D
:1011A000036E100E046E22EC09F0030E026EE80EC0
:1011B000016E4AEC09F0010E77EC09F0800E77EC35
:1011C00009F0120E036E100E046E22EC09F0C00E30
:1011D00077EC09F0010E036E100E046E22EC09F09C
:1011E00057EF08F000EF00F084928494000E026E36
:1011F000140E016E4AEC09F08482380E77EC09F087
:10120000000E026E050E016E4AEC09F0380E77EC06
:1012100009F0000E026E010E016E4AEC09F0380E64
:1012200077EC09F0080E77EC09F00F0E77EC09F077
:10123000010E77EC09F0380E77EC09F0800E77ECB0
:1012400009F01200000E076E35EF09F00750032475
:10125000056E000E0420066E05C0F6FF06C0F7FFFF
:101260000800F5506EEC09F0072A07500324056EBC
:10127000000E0420066E05C0F6FF06C0F7FF08004A
:10128000F5500009D8A447EF09F049EF09F026EF1F
:1012900009F01200000E046E000E036E62EF09F0FA
:1012A000000E056E00F000F000F000F000F0052ADE
:1012B000C70E05645EEF09F060EF09F052EF09F028
:1012C000034A042A0150035C02500458D8A06BEF73
:1012D00009F06DEF09F050EF09F01200026E848200
:1012E000025085EC09F08484849284821200026E9C
:1012F0008482025085EC09F08494849284821200E6
:10130000000EF86E000142EF08F0016E01C083FF8D
:021310001200C9
:020000040020DA
:08000000FFFFFFFFFFFFFFFF00
:020000040030CA
:0E000000FF06181EFF8180FF0FC00FE00F40AB
:00000001FF
